{
  "_format": "hh-sol-artifact-1",
  "contractName": "DegenToken",
  "sourceName": "contracts/DegenToken.sol",
  "abi": [
    {
      "inputs": [],
      "stateMutability": "nonpayable",
      "type": "constructor"
    },
    {
      "anonymous": false,
      "inputs": [
        {
          "indexed": true,
          "internalType": "address",
          "name": "owner",
          "type": "address"
        },
        {
          "indexed": true,
          "internalType": "address",
          "name": "spender",
          "type": "address"
        },
        {
          "indexed": false,
          "internalType": "uint256",
          "name": "value",
          "type": "uint256"
        }
      ],
      "name": "Approval",
      "type": "event"
    },
    {
      "anonymous": false,
      "inputs": [
        {
          "indexed": true,
          "internalType": "address",
          "name": "previousOwner",
          "type": "address"
        },
        {
          "indexed": true,
          "internalType": "address",
          "name": "newOwner",
          "type": "address"
        }
      ],
      "name": "OwnershipTransferred",
      "type": "event"
    },
    {
      "anonymous": false,
      "inputs": [
        {
          "indexed": false,
          "internalType": "address",
          "name": "account",
          "type": "address"
        }
      ],
      "name": "Paused",
      "type": "event"
    },
    {
      "anonymous": false,
      "inputs": [
        {
          "indexed": true,
          "internalType": "address",
          "name": "from",
          "type": "address"
        },
        {
          "indexed": true,
          "internalType": "address",
          "name": "to",
          "type": "address"
        },
        {
          "indexed": false,
          "internalType": "uint256",
          "name": "value",
          "type": "uint256"
        }
      ],
      "name": "Transfer",
      "type": "event"
    },
    {
      "anonymous": false,
      "inputs": [
        {
          "indexed": false,
          "internalType": "address",
          "name": "account",
          "type": "address"
        }
      ],
      "name": "Unpaused",
      "type": "event"
    },
    {
      "inputs": [
        {
          "internalType": "address",
          "name": "owner",
          "type": "address"
        },
        {
          "internalType": "address",
          "name": "spender",
          "type": "address"
        }
      ],
      "name": "allowance",
      "outputs": [
        {
          "internalType": "uint256",
          "name": "",
          "type": "uint256"
        }
      ],
      "stateMutability": "view",
      "type": "function"
    },
    {
      "inputs": [
        {
          "internalType": "address",
          "name": "spender",
          "type": "address"
        },
        {
          "internalType": "uint256",
          "name": "amount",
          "type": "uint256"
        }
      ],
      "name": "approve",
      "outputs": [
        {
          "internalType": "bool",
          "name": "",
          "type": "bool"
        }
      ],
      "stateMutability": "nonpayable",
      "type": "function"
    },
    {
      "inputs": [
        {
          "internalType": "address",
          "name": "account",
          "type": "address"
        }
      ],
      "name": "balanceOf",
      "outputs": [
        {
          "internalType": "uint256",
          "name": "",
          "type": "uint256"
        }
      ],
      "stateMutability": "view",
      "type": "function"
    },
    {
      "inputs": [
        {
          "internalType": "uint256",
          "name": "amount",
          "type": "uint256"
        }
      ],
      "name": "burn",
      "outputs": [],
      "stateMutability": "nonpayable",
      "type": "function"
    },
    {
      "inputs": [
        {
          "internalType": "address",
          "name": "account",
          "type": "address"
        },
        {
          "internalType": "uint256",
          "name": "amount",
          "type": "uint256"
        }
      ],
      "name": "burnFrom",
      "outputs": [],
      "stateMutability": "nonpayable",
      "type": "function"
    },
    {
      "inputs": [],
      "name": "decimals",
      "outputs": [
        {
          "internalType": "uint8",
          "name": "",
          "type": "uint8"
        }
      ],
      "stateMutability": "view",
      "type": "function"
    },
    {
      "inputs": [
        {
          "internalType": "address",
          "name": "spender",
          "type": "address"
        },
        {
          "internalType": "uint256",
          "name": "subtractedValue",
          "type": "uint256"
        }
      ],
      "name": "decreaseAllowance",
      "outputs": [
        {
          "internalType": "bool",
          "name": "",
          "type": "bool"
        }
      ],
      "stateMutability": "nonpayable",
      "type": "function"
    },
    {
      "inputs": [],
      "name": "getAvailableItems",
      "outputs": [
        {
          "internalType": "string[]",
          "name": "",
          "type": "string[]"
        }
      ],
      "stateMutability": "view",
      "type": "function"
    },
    {
      "inputs": [
        {
          "internalType": "address",
          "name": "account",
          "type": "address"
        }
      ],
      "name": "getOwnedItems",
      "outputs": [
        {
          "components": [
            {
              "internalType": "uint256",
              "name": "index",
              "type": "uint256"
            },
            {
              "internalType": "string",
              "name": "name",
              "type": "string"
            },
            {
              "internalType": "uint256",
              "name": "price",
              "type": "uint256"
            },
            {
              "internalType": "bool",
              "name": "isAvailable",
              "type": "bool"
            }
          ],
          "internalType": "struct DegenToken.Item[]",
          "name": "",
          "type": "tuple[]"
        }
      ],
      "stateMutability": "view",
      "type": "function"
    },
    {
      "inputs": [
        {
          "internalType": "address",
          "name": "spender",
          "type": "address"
        },
        {
          "internalType": "uint256",
          "name": "addedValue",
          "type": "uint256"
        }
      ],
      "name": "increaseAllowance",
      "outputs": [
        {
          "internalType": "bool",
          "name": "",
          "type": "bool"
        }
      ],
      "stateMutability": "nonpayable",
      "type": "function"
    },
    {
      "inputs": [
        {
          "internalType": "address",
          "name": "to",
          "type": "address"
        },
        {
          "internalType": "uint256",
          "name": "amount",
          "type": "uint256"
        }
      ],
      "name": "mint",
      "outputs": [],
      "stateMutability": "nonpayable",
      "type": "function"
    },
    {
      "inputs": [],
      "name": "name",
      "outputs": [
        {
          "internalType": "string",
          "name": "",
          "type": "string"
        }
      ],
      "stateMutability": "view",
      "type": "function"
    },
    {
      "inputs": [],
      "name": "owner",
      "outputs": [
        {
          "internalType": "address",
          "name": "",
          "type": "address"
        }
      ],
      "stateMutability": "view",
      "type": "function"
    },
    {
      "inputs": [],
      "name": "pause",
      "outputs": [],
      "stateMutability": "nonpayable",
      "type": "function"
    },
    {
      "inputs": [],
      "name": "paused",
      "outputs": [
        {
          "internalType": "bool",
          "name": "",
          "type": "bool"
        }
      ],
      "stateMutability": "view",
      "type": "function"
    },
    {
      "inputs": [
        {
          "internalType": "uint256",
          "name": "index",
          "type": "uint256"
        }
      ],
      "name": "redeem",
      "outputs": [],
      "stateMutability": "nonpayable",
      "type": "function"
    },
    {
      "inputs": [],
      "name": "renounceOwnership",
      "outputs": [],
      "stateMutability": "nonpayable",
      "type": "function"
    },
    {
      "inputs": [],
      "name": "symbol",
      "outputs": [
        {
          "internalType": "string",
          "name": "",
          "type": "string"
        }
      ],
      "stateMutability": "view",
      "type": "function"
    },
    {
      "inputs": [],
      "name": "totalSupply",
      "outputs": [
        {
          "internalType": "uint256",
          "name": "",
          "type": "uint256"
        }
      ],
      "stateMutability": "view",
      "type": "function"
    },
    {
      "inputs": [
        {
          "internalType": "address",
          "name": "recipient",
          "type": "address"
        },
        {
          "internalType": "uint256",
          "name": "amount",
          "type": "uint256"
        }
      ],
      "name": "transfer",
      "outputs": [
        {
          "internalType": "bool",
          "name": "",
          "type": "bool"
        }
      ],
      "stateMutability": "nonpayable",
      "type": "function"
    },
    {
      "inputs": [
        {
          "internalType": "address",
          "name": "from",
          "type": "address"
        },
        {
          "internalType": "address",
          "name": "to",
          "type": "address"
        },
        {
          "internalType": "uint256",
          "name": "amount",
          "type": "uint256"
        }
      ],
      "name": "transferFrom",
      "outputs": [
        {
          "internalType": "bool",
          "name": "",
          "type": "bool"
        }
      ],
      "stateMutability": "nonpayable",
      "type": "function"
    },
    {
      "inputs": [
        {
          "internalType": "address",
          "name": "newOwner",
          "type": "address"
        }
      ],
      "name": "transferOwnership",
      "outputs": [],
      "stateMutability": "nonpayable",
      "type": "function"
    },
    {
      "inputs": [],
      "name": "unpause",
      "outputs": [],
      "stateMutability": "nonpayable",
      "type": "function"
    }
  ],
  "bytecode": "0x60806040523480156200001157600080fd5b506040518060400160405280600581526020017f446567656e0000000000000000000000000000000000000000000000000000008152506040518060400160405280600381526020017f44474e000000000000000000000000000000000000000000000000000000000081525081600390816200008f9190620006fe565b508060049081620000a19190620006fe565b5050506000600560006101000a81548160ff021916908315150217905550620000df620000d3620003b660201b60201c565b620003be60201b60201c565b7316bb48d0d1d91d26a5097d7a3fdc431f34c955f4600660006101000a81548173ffffffffffffffffffffffffffffffffffffffff021916908373ffffffffffffffffffffffffffffffffffffffff16021790555060086040518060800160405280600181526020016040518060400160405280600381526020017f4e465400000000000000000000000000000000000000000000000000000000008152508152602001600a8152602001600115158152509080600181540180825580915050600190039060005260206000209060040201600090919091909150600082015181600001556020820151816001019081620001db9190620006fe565b506040820151816002015560608201518160030160006101000a81548160ff021916908315150217905550505060086040518060800160405280600281526020016040518060400160405280600c81526020017f47616d696e67204d6f7573650000000000000000000000000000000000000000815250815260200160148152602001600115158152509080600181540180825580915050600190039060005260206000209060040201600090919091909150600082015181600001556020820151816001019081620002af9190620006fe565b506040820151816002015560608201518160030160006101000a81548160ff021916908315150217905550505060086040518060800160405280600381526020016040518060400160405280600781526020017f48656164736574000000000000000000000000000000000000000000000000008152508152602001601e8152602001600115158152509080600181540180825580915050600190039060005260206000209060040201600090919091909150600082015181600001556020820151816001019081620003839190620006fe565b506040820151816002015560608201518160030160006101000a81548160ff0219169083151502179055505050620007e5565b600033905090565b6000600560019054906101000a900473ffffffffffffffffffffffffffffffffffffffff16905081600560016101000a81548173ffffffffffffffffffffffffffffffffffffffff021916908373ffffffffffffffffffffffffffffffffffffffff1602179055508173ffffffffffffffffffffffffffffffffffffffff168173ffffffffffffffffffffffffffffffffffffffff167f8be0079c531659141344cd1fd0a4f28419497f9722a3daafe3b4186f6b6457e060405160405180910390a35050565b600081519050919050565b7f4e487b7100000000000000000000000000000000000000000000000000000000600052604160045260246000fd5b7f4e487b7100000000000000000000000000000000000000000000000000000000600052602260045260246000fd5b600060028204905060018216806200050657607f821691505b6020821081036200051c576200051b620004be565b5b50919050565b60008190508160005260206000209050919050565b60006020601f8301049050919050565b600082821b905092915050565b600060088302620005867fffffffffffffffffffffffffffffffffffffffffffffffffffffffffffffffff8262000547565b62000592868362000547565b95508019841693508086168417925050509392505050565b6000819050919050565b6000819050919050565b6000620005df620005d9620005d384620005aa565b620005b4565b620005aa565b9050919050565b6000819050919050565b620005fb83620005be565b620006136200060a82620005e6565b84845462000554565b825550505050565b600090565b6200062a6200061b565b62000637818484620005f0565b505050565b5b818110156200065f576200065360008262000620565b6001810190506200063d565b5050565b601f821115620006ae57620006788162000522565b620006838462000537565b8101602085101562000693578190505b620006ab620006a28562000537565b8301826200063c565b50505b505050565b600082821c905092915050565b6000620006d360001984600802620006b3565b1980831691505092915050565b6000620006ee8383620006c0565b9150826002028217905092915050565b620007098262000484565b67ffffffffffffffff8111156200072557620007246200048f565b5b620007318254620004ed565b6200073e82828562000663565b600060209050601f83116001811462000776576000841562000761578287015190505b6200076d8582620006e0565b865550620007dd565b601f198416620007868662000522565b60005b82811015620007b05784890151825560018201915060208501945060208101905062000789565b86831015620007d05784890151620007cc601f891682620006c0565b8355505b6001600288020188555050505b505050505050565b612f3380620007f56000396000f3fe608060405234801561001057600080fd5b506004361061014d5760003560e01c806370a08231116100c3578063a457c2d71161007c578063a457c2d714610356578063a9059cbb14610386578063db006a75146103b6578063dd62ed3e146103d2578063e417dc3514610402578063f2fde38b146104325761014d565b806370a08231146102ba578063715018a6146102ea57806379cc6790146102f45780638456cb59146103105780638da5cb5b1461031a57806395d89b41146103385761014d565b8063313ce56711610115578063313ce5671461020c578063395093511461022a5780633f4ba83a1461025a57806340c10f191461026457806342966c68146102805780635c975abb1461029c5761014d565b806306fdde0314610152578063095ea7b3146101705780630c43d6f3146101a057806318160ddd146101be57806323b872dd146101dc575b600080fd5b61015a61044e565b6040516101679190611a7a565b60405180910390f35b61018a60048036038101906101859190611b35565b6104e0565b6040516101979190611b90565b60405180910390f35b6101a8610503565b6040516101b59190611cb7565b60405180910390f35b6101c66106f7565b6040516101d39190611ce8565b60405180910390f35b6101f660048036038101906101f19190611d03565b610701565b6040516102039190611b90565b60405180910390f35b610214610730565b6040516102219190611d72565b60405180910390f35b610244600480360381019061023f9190611b35565b610735565b6040516102519190611b90565b60405180910390f35b61026261076c565b005b61027e60048036038101906102799190611b35565b61077e565b005b61029a60048036038101906102959190611d8d565b610794565b005b6102a46107a8565b6040516102b19190611b90565b60405180910390f35b6102d460048036038101906102cf9190611dba565b6107bf565b6040516102e19190611ce8565b60405180910390f35b6102f2610807565b005b61030e60048036038101906103099190611b35565b61081b565b005b61031861083b565b005b61032261084d565b60405161032f9190611df6565b60405180910390f35b610340610877565b60405161034d9190611a7a565b60405180910390f35b610370600480360381019061036b9190611b35565b610909565b60405161037d9190611b90565b60405180910390f35b6103a0600480360381019061039b9190611b35565b610980565b6040516103ad9190611b90565b60405180910390f35b6103d060048036038101906103cb9190611d8d565b6109a6565b005b6103ec60048036038101906103e79190611e11565b610b84565b6040516103f99190611ce8565b60405180910390f35b61041c60048036038101906104179190611dba565b610c0b565b6040516104299190611f94565b60405180910390f35b61044c60048036038101906104479190611dba565b610d6a565b005b60606003805461045d90611fe5565b80601f016020809104026020016040519081016040528092919081815260200182805461048990611fe5565b80156104d65780601f106104ab576101008083540402835291602001916104d6565b820191906000526020600020905b8154815290600101906020018083116104b957829003601f168201915b5050505050905090565b6000806104eb610ded565b90506104f8818585610df5565b600191505092915050565b6060600060088054905067ffffffffffffffff81111561052657610525612016565b5b60405190808252806020026020018201604052801561055957816020015b60608152602001906001900390816105445790505b50905060005b6008805490508110156106ef5760006008828154811061058257610581612045565b5b906000526020600020906004020160030160009054906101000a900460ff166105e0576040518060400160405280600d81526020017f6e6f7420617661696c61626c6500000000000000000000000000000000000000815250610617565b6040518060400160405280600981526020017f617661696c61626c6500000000000000000000000000000000000000000000008152505b9050610647600883815481106106305761062f612045565b5b906000526020600020906004020160000154610fbe565b6008838154811061065b5761065a612045565b5b906000526020600020906004020160010161069a6008858154811061068357610682612045565b5b906000526020600020906004020160020154610fbe565b836040516020016106ae9493929190612278565b6040516020818303038152906040528383815181106106d0576106cf612045565b5b60200260200101819052505080806106e790612311565b91505061055f565b508091505090565b6000600254905090565b60008061070c610ded565b905061071985828561111e565b6107248585856111aa565b60019150509392505050565b600090565b600080610740610ded565b90506107618185856107528589610b84565b61075c9190612359565b610df5565b600191505092915050565b610774611420565b61077c61149e565b565b610786611420565b6107908282611501565b5050565b6107a561079f610ded565b82611657565b50565b6000600560009054906101000a900460ff16905090565b60008060008373ffffffffffffffffffffffffffffffffffffffff1673ffffffffffffffffffffffffffffffffffffffff168152602001908152602001600020549050919050565b61080f611420565b6108196000611824565b565b61082d82610827610ded565b8361111e565b6108378282611657565b5050565b610843611420565b61084b6118ea565b565b6000600560019054906101000a900473ffffffffffffffffffffffffffffffffffffffff16905090565b60606004805461088690611fe5565b80601f01602080910402602001604051908101604052809291908181526020018280546108b290611fe5565b80156108ff5780601f106108d4576101008083540402835291602001916108ff565b820191906000526020600020905b8154815290600101906020018083116108e257829003601f168201915b5050505050905090565b600080610914610ded565b905060006109228286610b84565b905083811015610967576040517f08c379a000000000000000000000000000000000000000000000000000000000815260040161095e906123ff565b60405180910390fd5b6109748286868403610df5565b60019250505092915050565b600061098a61194d565b61099c610995610ded565b84846111aa565b6001905092915050565b60088054905081106109ed576040517f08c379a00000000000000000000000000000000000000000000000000000000081526004016109e49061246b565b60405180910390fd5b60006109f7610ded565b90506000610a04826107bf565b905060088381548110610a1a57610a19612045565b5b906000526020600020906004020160020154811015610a6e576040517f08c379a0000000000000000000000000000000000000000000000000000000008152600401610a65906124d7565b60405180910390fd5b610a9d8260088581548110610a8657610a85612045565b5b906000526020600020906004020160020154611657565b600760008373ffffffffffffffffffffffffffffffffffffffff1673ffffffffffffffffffffffffffffffffffffffff16815260200190815260200160002060088481548110610af057610aef612045565b5b906000526020600020906004020190806001815401808255809150506001900390600052602060002090600402016000909190919091506000820154816000015560018201816001019081610b4591906126a4565b50600282015481600201556003820160009054906101000a900460ff168160030160006101000a81548160ff0219169083151502179055505050505050565b6000600160008473ffffffffffffffffffffffffffffffffffffffff1673ffffffffffffffffffffffffffffffffffffffff16815260200190815260200160002060008373ffffffffffffffffffffffffffffffffffffffff1673ffffffffffffffffffffffffffffffffffffffff16815260200190815260200160002054905092915050565b6060600760008373ffffffffffffffffffffffffffffffffffffffff1673ffffffffffffffffffffffffffffffffffffffff168152602001908152602001600020805480602002602001604051908101604052809291908181526020016000905b82821015610d5f578382906000526020600020906004020160405180608001604052908160008201548152602001600182018054610ca990611fe5565b80601f0160208091040260200160405190810160405280929190818152602001828054610cd590611fe5565b8015610d225780601f10610cf757610100808354040283529160200191610d22565b820191906000526020600020905b815481529060010190602001808311610d0557829003601f168201915b50505050508152602001600282015481526020016003820160009054906101000a900460ff16151515158152505081526020019060010190610c6c565b505050509050919050565b610d72611420565b600073ffffffffffffffffffffffffffffffffffffffff168173ffffffffffffffffffffffffffffffffffffffff1603610de1576040517f08c379a0000000000000000000000000000000000000000000000000000000008152600401610dd8906127fe565b60405180910390fd5b610dea81611824565b50565b600033905090565b600073ffffffffffffffffffffffffffffffffffffffff168373ffffffffffffffffffffffffffffffffffffffff1603610e64576040517f08c379a0000000000000000000000000000000000000000000000000000000008152600401610e5b90612890565b60405180910390fd5b600073ffffffffffffffffffffffffffffffffffffffff168273ffffffffffffffffffffffffffffffffffffffff1603610ed3576040517f08c379a0000000000000000000000000000000000000000000000000000000008152600401610eca90612922565b60405180910390fd5b80600160008573ffffffffffffffffffffffffffffffffffffffff1673ffffffffffffffffffffffffffffffffffffffff16815260200190815260200160002060008473ffffffffffffffffffffffffffffffffffffffff1673ffffffffffffffffffffffffffffffffffffffff168152602001908152602001600020819055508173ffffffffffffffffffffffffffffffffffffffff168373ffffffffffffffffffffffffffffffffffffffff167f8c5be1e5ebec7d5bd14f71427d1e84f3dd0314c0f7b2291e5b200ac8c7c3b92583604051610fb19190611ce8565b60405180910390a3505050565b606060008203611005576040518060400160405280600181526020017f30000000000000000000000000000000000000000000000000000000000000008152509050611119565b600082905060005b6000821461103757808061102090612311565b915050600a826110309190612971565b915061100d565b60008167ffffffffffffffff81111561105357611052612016565b5b6040519080825280601f01601f1916602001820160405280156110855781602001600182028036833780820191505090505b5090505b600085146111125760018261109e91906129a2565b9150600a856110ad91906129d6565b60306110b99190612359565b60f81b8183815181106110cf576110ce612045565b5b60200101907effffffffffffffffffffffffffffffffffffffffffffffffffffffffffffff1916908160001a905350600a8561110b9190612971565b9450611089565b8093505050505b919050565b600061112a8484610b84565b90507fffffffffffffffffffffffffffffffffffffffffffffffffffffffffffffffff81146111a45781811015611196576040517f08c379a000000000000000000000000000000000000000000000000000000000815260040161118d90612a53565b60405180910390fd5b6111a38484848403610df5565b5b50505050565b600073ffffffffffffffffffffffffffffffffffffffff168373ffffffffffffffffffffffffffffffffffffffff1603611219576040517f08c379a000000000000000000000000000000000000000000000000000000000815260040161121090612ae5565b60405180910390fd5b600073ffffffffffffffffffffffffffffffffffffffff168273ffffffffffffffffffffffffffffffffffffffff1603611288576040517f08c379a000000000000000000000000000000000000000000000000000000000815260040161127f90612b77565b60405180910390fd5b611293838383611997565b60008060008573ffffffffffffffffffffffffffffffffffffffff1673ffffffffffffffffffffffffffffffffffffffff16815260200190815260200160002054905081811015611319576040517f08c379a000000000000000000000000000000000000000000000000000000000815260040161131090612c09565b60405180910390fd5b8181036000808673ffffffffffffffffffffffffffffffffffffffff1673ffffffffffffffffffffffffffffffffffffffff16815260200190815260200160002081905550816000808573ffffffffffffffffffffffffffffffffffffffff1673ffffffffffffffffffffffffffffffffffffffff168152602001908152602001600020600082825401925050819055508273ffffffffffffffffffffffffffffffffffffffff168473ffffffffffffffffffffffffffffffffffffffff167fddf252ad1be2c89b69c2b068fc378daa952ba7f163c4a11628f55a4df523b3ef846040516114079190611ce8565b60405180910390a361141a84848461199c565b50505050565b611428610ded565b73ffffffffffffffffffffffffffffffffffffffff1661144661084d565b73ffffffffffffffffffffffffffffffffffffffff161461149c576040517f08c379a000000000000000000000000000000000000000000000000000000000815260040161149390612c75565b60405180910390fd5b565b6114a66119a1565b6000600560006101000a81548160ff0219169083151502179055507f5db9ee0a495bf2e6ff9c91a7834c1ba4fdd244a5e8aa4e537bd38aeae4b073aa6114ea610ded565b6040516114f79190611df6565b60405180910390a1565b600073ffffffffffffffffffffffffffffffffffffffff168273ffffffffffffffffffffffffffffffffffffffff1603611570576040517f08c379a000000000000000000000000000000000000000000000000000000000815260040161156790612ce1565b60405180910390fd5b61157c60008383611997565b806002600082825461158e9190612359565b92505081905550806000808473ffffffffffffffffffffffffffffffffffffffff1673ffffffffffffffffffffffffffffffffffffffff168152602001908152602001600020600082825401925050819055508173ffffffffffffffffffffffffffffffffffffffff16600073ffffffffffffffffffffffffffffffffffffffff167fddf252ad1be2c89b69c2b068fc378daa952ba7f163c4a11628f55a4df523b3ef8360405161163f9190611ce8565b60405180910390a36116536000838361199c565b5050565b600073ffffffffffffffffffffffffffffffffffffffff168273ffffffffffffffffffffffffffffffffffffffff16036116c6576040517f08c379a00000000000000000000000000000000000000000000000000000000081526004016116bd90612d73565b60405180910390fd5b6116d282600083611997565b60008060008473ffffffffffffffffffffffffffffffffffffffff1673ffffffffffffffffffffffffffffffffffffffff16815260200190815260200160002054905081811015611758576040517f08c379a000000000000000000000000000000000000000000000000000000000815260040161174f90612e05565b60405180910390fd5b8181036000808573ffffffffffffffffffffffffffffffffffffffff1673ffffffffffffffffffffffffffffffffffffffff1681526020019081526020016000208190555081600260008282540392505081905550600073ffffffffffffffffffffffffffffffffffffffff168373ffffffffffffffffffffffffffffffffffffffff167fddf252ad1be2c89b69c2b068fc378daa952ba7f163c4a11628f55a4df523b3ef8460405161180b9190611ce8565b60405180910390a361181f8360008461199c565b505050565b6000600560019054906101000a900473ffffffffffffffffffffffffffffffffffffffff16905081600560016101000a81548173ffffffffffffffffffffffffffffffffffffffff021916908373ffffffffffffffffffffffffffffffffffffffff1602179055508173ffffffffffffffffffffffffffffffffffffffff168173ffffffffffffffffffffffffffffffffffffffff167f8be0079c531659141344cd1fd0a4f28419497f9722a3daafe3b4186f6b6457e060405160405180910390a35050565b6118f261194d565b6001600560006101000a81548160ff0219169083151502179055507f62e78cea01bee320cd4e420270b5ea74000d11b0c9f74754ebdbfc544b05a258611936610ded565b6040516119439190611df6565b60405180910390a1565b6119556107a8565b15611995576040517f08c379a000000000000000000000000000000000000000000000000000000000815260040161198c90612e71565b60405180910390fd5b565b505050565b505050565b6119a96107a8565b6119e8576040517f08c379a00000000000000000000000000000000000000000000000000000000081526004016119df90612edd565b60405180910390fd5b565b600081519050919050565b600082825260208201905092915050565b60005b83811015611a24578082015181840152602081019050611a09565b60008484015250505050565b6000601f19601f8301169050919050565b6000611a4c826119ea565b611a5681856119f5565b9350611a66818560208601611a06565b611a6f81611a30565b840191505092915050565b60006020820190508181036000830152611a948184611a41565b905092915050565b600080fd5b600073ffffffffffffffffffffffffffffffffffffffff82169050919050565b6000611acc82611aa1565b9050919050565b611adc81611ac1565b8114611ae757600080fd5b50565b600081359050611af981611ad3565b92915050565b6000819050919050565b611b1281611aff565b8114611b1d57600080fd5b50565b600081359050611b2f81611b09565b92915050565b60008060408385031215611b4c57611b4b611a9c565b5b6000611b5a85828601611aea565b9250506020611b6b85828601611b20565b9150509250929050565b60008115159050919050565b611b8a81611b75565b82525050565b6000602082019050611ba56000830184611b81565b92915050565b600081519050919050565b600082825260208201905092915050565b6000819050602082019050919050565b600082825260208201905092915050565b6000611bf3826119ea565b611bfd8185611bd7565b9350611c0d818560208601611a06565b611c1681611a30565b840191505092915050565b6000611c2d8383611be8565b905092915050565b6000602082019050919050565b6000611c4d82611bab565b611c578185611bb6565b935083602082028501611c6985611bc7565b8060005b85811015611ca55784840389528151611c868582611c21565b9450611c9183611c35565b925060208a01995050600181019050611c6d565b50829750879550505050505092915050565b60006020820190508181036000830152611cd18184611c42565b905092915050565b611ce281611aff565b82525050565b6000602082019050611cfd6000830184611cd9565b92915050565b600080600060608486031215611d1c57611d1b611a9c565b5b6000611d2a86828701611aea565b9350506020611d3b86828701611aea565b9250506040611d4c86828701611b20565b9150509250925092565b600060ff82169050919050565b611d6c81611d56565b82525050565b6000602082019050611d876000830184611d63565b92915050565b600060208284031215611da357611da2611a9c565b5b6000611db184828501611b20565b91505092915050565b600060208284031215611dd057611dcf611a9c565b5b6000611dde84828501611aea565b91505092915050565b611df081611ac1565b82525050565b6000602082019050611e0b6000830184611de7565b92915050565b60008060408385031215611e2857611e27611a9c565b5b6000611e3685828601611aea565b9250506020611e4785828601611aea565b9150509250929050565b600081519050919050565b600082825260208201905092915050565b6000819050602082019050919050565b611e8681611aff565b82525050565b611e9581611b75565b82525050565b6000608083016000830151611eb36000860182611e7d565b5060208301518482036020860152611ecb8282611be8565b9150506040830151611ee06040860182611e7d565b506060830151611ef36060860182611e8c565b508091505092915050565b6000611f0a8383611e9b565b905092915050565b6000602082019050919050565b6000611f2a82611e51565b611f348185611e5c565b935083602082028501611f4685611e6d565b8060005b85811015611f825784840389528151611f638582611efe565b9450611f6e83611f12565b925060208a01995050600181019050611f4a565b50829750879550505050505092915050565b60006020820190508181036000830152611fae8184611f1f565b905092915050565b7f4e487b7100000000000000000000000000000000000000000000000000000000600052602260045260246000fd5b60006002820490506001821680611ffd57607f821691505b6020821081036120105761200f611fb6565b5b50919050565b7f4e487b7100000000000000000000000000000000000000000000000000000000600052604160045260246000fd5b7f4e487b7100000000000000000000000000000000000000000000000000000000600052603260045260246000fd5b600081905092915050565b600061208a826119ea565b6120948185612074565b93506120a4818560208601611a06565b80840191505092915050565b7f2e00000000000000000000000000000000000000000000000000000000000000600082015250565b60006120e6600183612074565b91506120f1826120b0565b600182019050919050565b60008190508160005260206000209050919050565b6000815461211e81611fe5565b6121288186612074565b9450600182166000811461214357600181146121585761218b565b60ff198316865281151582028601935061218b565b612161856120fc565b60005b8381101561218357815481890152600182019150602081019050612164565b838801955050505b50505092915050565b7f2800000000000000000000000000000000000000000000000000000000000000600082015250565b60006121ca600183612074565b91506121d582612194565b600182019050919050565b7f2900000000000000000000000000000000000000000000000000000000000000600082015250565b6000612216600183612074565b9150612221826121e0565b600182019050919050565b7f2c20000000000000000000000000000000000000000000000000000000000000600082015250565b6000612262600283612074565b915061226d8261222c565b600282019050919050565b6000612284828761207f565b915061228f826120d9565b915061229b8286612111565b91506122a6826121bd565b91506122b2828561207f565b91506122bd82612209565b91506122c882612255565b91506122d4828461207f565b915081905095945050505050565b7f4e487b7100000000000000000000000000000000000000000000000000000000600052601160045260246000fd5b600061231c82611aff565b91507fffffffffffffffffffffffffffffffffffffffffffffffffffffffffffffffff820361234e5761234d6122e2565b5b600182019050919050565b600061236482611aff565b915061236f83611aff565b9250828201905080821115612387576123866122e2565b5b92915050565b7f45524332303a2064656372656173656420616c6c6f77616e63652062656c6f7760008201527f207a65726f000000000000000000000000000000000000000000000000000000602082015250565b60006123e96025836119f5565b91506123f48261238d565b604082019050919050565b60006020820190508181036000830152612418816123dc565b9050919050565b7f496e76616c6964206974656d20696e6465780000000000000000000000000000600082015250565b60006124556012836119f5565b91506124608261241f565b602082019050919050565b6000602082019050818103600083015261248481612448565b9050919050565b7f496e73756666696369656e742062616c616e6365000000000000000000000000600082015250565b60006124c16014836119f5565b91506124cc8261248b565b602082019050919050565b600060208201905081810360008301526124f0816124b4565b9050919050565b60008154905061250681611fe5565b9050919050565b60006020601f8301049050919050565b600082821b905092915050565b60006008830261255a7fffffffffffffffffffffffffffffffffffffffffffffffffffffffffffffffff8261251d565b612564868361251d565b95508019841693508086168417925050509392505050565b6000819050919050565b60006125a161259c61259784611aff565b61257c565b611aff565b9050919050565b6000819050919050565b6125bb83612586565b6125cf6125c7826125a8565b84845461252a565b825550505050565b600090565b6125e46125d7565b6125ef8184846125b2565b505050565b5b81811015612613576126086000826125dc565b6001810190506125f5565b5050565b601f82111561265857612629816120fc565b6126328461250d565b81016020851015612641578190505b61265561264d8561250d565b8301826125f4565b50505b505050565b600082821c905092915050565b600061267b6000198460080261265d565b1980831691505092915050565b6000612694838361266a565b9150826002028217905092915050565b8181036126b257505061278a565b6126bb826124f7565b67ffffffffffffffff8111156126d4576126d3612016565b5b6126de8254611fe5565b6126e9828285612617565b6000601f8311600181146127185760008415612706578287015490505b6127108582612688565b865550612783565b601f198416612726876120fc565b9650612731866120fc565b60005b8281101561275957848901548255600182019150600185019450602081019050612734565b868310156127765784890154612772601f89168261266a565b8355505b6001600288020188555050505b5050505050505b565b7f4f776e61626c653a206e6577206f776e657220697320746865207a65726f206160008201527f6464726573730000000000000000000000000000000000000000000000000000602082015250565b60006127e86026836119f5565b91506127f38261278c565b604082019050919050565b60006020820190508181036000830152612817816127db565b9050919050565b7f45524332303a20617070726f76652066726f6d20746865207a65726f2061646460008201527f7265737300000000000000000000000000000000000000000000000000000000602082015250565b600061287a6024836119f5565b91506128858261281e565b604082019050919050565b600060208201905081810360008301526128a98161286d565b9050919050565b7f45524332303a20617070726f766520746f20746865207a65726f20616464726560008201527f7373000000000000000000000000000000000000000000000000000000000000602082015250565b600061290c6022836119f5565b9150612917826128b0565b604082019050919050565b6000602082019050818103600083015261293b816128ff565b9050919050565b7f4e487b7100000000000000000000000000000000000000000000000000000000600052601260045260246000fd5b600061297c82611aff565b915061298783611aff565b92508261299757612996612942565b5b828204905092915050565b60006129ad82611aff565b91506129b883611aff565b92508282039050818111156129d0576129cf6122e2565b5b92915050565b60006129e182611aff565b91506129ec83611aff565b9250826129fc576129fb612942565b5b828206905092915050565b7f45524332303a20696e73756666696369656e7420616c6c6f77616e6365000000600082015250565b6000612a3d601d836119f5565b9150612a4882612a07565b602082019050919050565b60006020820190508181036000830152612a6c81612a30565b9050919050565b7f45524332303a207472616e736665722066726f6d20746865207a65726f20616460008201527f6472657373000000000000000000000000000000000000000000000000000000602082015250565b6000612acf6025836119f5565b9150612ada82612a73565b604082019050919050565b60006020820190508181036000830152612afe81612ac2565b9050919050565b7f45524332303a207472616e7366657220746f20746865207a65726f206164647260008201527f6573730000000000000000000000000000000000000000000000000000000000602082015250565b6000612b616023836119f5565b9150612b6c82612b05565b604082019050919050565b60006020820190508181036000830152612b9081612b54565b9050919050565b7f45524332303a207472616e7366657220616d6f756e742065786365656473206260008201527f616c616e63650000000000000000000000000000000000000000000000000000602082015250565b6000612bf36026836119f5565b9150612bfe82612b97565b604082019050919050565b60006020820190508181036000830152612c2281612be6565b9050919050565b7f4f776e61626c653a2063616c6c6572206973206e6f7420746865206f776e6572600082015250565b6000612c5f6020836119f5565b9150612c6a82612c29565b602082019050919050565b60006020820190508181036000830152612c8e81612c52565b9050919050565b7f45524332303a206d696e7420746f20746865207a65726f206164647265737300600082015250565b6000612ccb601f836119f5565b9150612cd682612c95565b602082019050919050565b60006020820190508181036000830152612cfa81612cbe565b9050919050565b7f45524332303a206275726e2066726f6d20746865207a65726f2061646472657360008201527f7300000000000000000000000000000000000000000000000000000000000000602082015250565b6000612d5d6021836119f5565b9150612d6882612d01565b604082019050919050565b60006020820190508181036000830152612d8c81612d50565b9050919050565b7f45524332303a206275726e20616d6f756e7420657863656564732062616c616e60008201527f6365000000000000000000000000000000000000000000000000000000000000602082015250565b6000612def6022836119f5565b9150612dfa82612d93565b604082019050919050565b60006020820190508181036000830152612e1e81612de2565b9050919050565b7f5061757361626c653a2070617573656400000000000000000000000000000000600082015250565b6000612e5b6010836119f5565b9150612e6682612e25565b602082019050919050565b60006020820190508181036000830152612e8a81612e4e565b9050919050565b7f5061757361626c653a206e6f7420706175736564000000000000000000000000600082015250565b6000612ec76014836119f5565b9150612ed282612e91565b602082019050919050565b60006020820190508181036000830152612ef681612eba565b905091905056fea2646970667358221220eefb0d589db5fa7201a8dfdef85c0dd9f718fa9ec2f6960e5ce527af8564c80c64736f6c63430008120033",
  "linkReferences": {},
  "deployedLinkReferences": {}
}